{
  "_format": "hh-sol-artifact-1",
  "contractName": "MessageBoard",
  "sourceName": "contracts/MessageBoard.sol",
  "abi": [
    {
      "anonymous": false,
      "inputs": [
        {
          "indexed": false,
          "internalType": "address",
          "name": "sender",
          "type": "address"
        },
        {
          "indexed": false,
          "internalType": "uint256",
          "name": "value",
          "type": "uint256"
        }
      ],
      "name": "Fallback",
      "type": "event"
    },
    {
      "anonymous": false,
      "inputs": [
        {
          "indexed": false,
          "internalType": "bytes",
          "name": "content",
          "type": "bytes"
        }
      ],
      "name": "OnBoard",
      "type": "event"
    },
    {
      "anonymous": false,
      "inputs": [
        {
          "indexed": true,
          "internalType": "address",
          "name": "previousOwner",
          "type": "address"
        },
        {
          "indexed": true,
          "internalType": "address",
          "name": "newOwner",
          "type": "address"
        }
      ],
      "name": "OwnershipTransferred",
      "type": "event"
    },
    {
      "anonymous": false,
      "inputs": [
        {
          "indexed": false,
          "internalType": "address",
          "name": "sender",
          "type": "address"
        },
        {
          "indexed": false,
          "internalType": "uint256",
          "name": "value",
          "type": "uint256"
        }
      ],
      "name": "Received",
      "type": "event"
    },
    {
      "anonymous": false,
      "inputs": [
        {
          "indexed": false,
          "internalType": "address",
          "name": "receiver",
          "type": "address"
        },
        {
          "indexed": false,
          "internalType": "uint256",
          "name": "value",
          "type": "uint256"
        }
      ],
      "name": "Withdraw",
      "type": "event"
    },
    {
      "stateMutability": "payable",
      "type": "fallback"
    },
    {
      "inputs": [],
      "name": "getBalance",
      "outputs": [
        {
          "internalType": "uint256",
          "name": "",
          "type": "uint256"
        }
      ],
      "stateMutability": "view",
      "type": "function"
    },
    {
      "inputs": [
        {
          "internalType": "bytes32",
          "name": "key",
          "type": "bytes32"
        }
      ],
      "name": "getMessageByKey",
      "outputs": [
        {
          "internalType": "bytes",
          "name": "",
          "type": "bytes"
        }
      ],
      "stateMutability": "view",
      "type": "function"
    },
    {
      "inputs": [
        {
          "internalType": "bytes32",
          "name": "",
          "type": "bytes32"
        }
      ],
      "name": "messageMap",
      "outputs": [
        {
          "internalType": "bytes",
          "name": "",
          "type": "bytes"
        }
      ],
      "stateMutability": "view",
      "type": "function"
    },
    {
      "inputs": [],
      "name": "owner",
      "outputs": [
        {
          "internalType": "address",
          "name": "",
          "type": "address"
        }
      ],
      "stateMutability": "view",
      "type": "function"
    },
    {
      "inputs": [],
      "name": "renounceOwnership",
      "outputs": [],
      "stateMutability": "nonpayable",
      "type": "function"
    },
    {
      "inputs": [
        {
          "internalType": "bytes32",
          "name": "key",
          "type": "bytes32"
        },
        {
          "internalType": "bytes",
          "name": "content",
          "type": "bytes"
        }
      ],
      "name": "submitMessage",
      "outputs": [],
      "stateMutability": "nonpayable",
      "type": "function"
    },
    {
      "inputs": [
        {
          "internalType": "address",
          "name": "newOwner",
          "type": "address"
        }
      ],
      "name": "transferOwnership",
      "outputs": [],
      "stateMutability": "nonpayable",
      "type": "function"
    },
    {
      "inputs": [],
      "name": "withdraw",
      "outputs": [],
      "stateMutability": "nonpayable",
      "type": "function"
    },
    {
      "stateMutability": "payable",
      "type": "receive"
    }
  ],
  "bytecode": "0x608060405234801561001057600080fd5b5061002d61002261003260201b60201c565b61003a60201b60201c565b6100fe565b600033905090565b60008060009054906101000a900473ffffffffffffffffffffffffffffffffffffffff169050816000806101000a81548173ffffffffffffffffffffffffffffffffffffffff021916908373ffffffffffffffffffffffffffffffffffffffff1602179055508173ffffffffffffffffffffffffffffffffffffffff168173ffffffffffffffffffffffffffffffffffffffff167f8be0079c531659141344cd1fd0a4f28419497f9722a3daafe3b4186f6b6457e060405160405180910390a35050565b6111de8061010d6000396000f3fe60806040526004361061007f5760003560e01c8063715018a61161004e578063715018a6146101a25780638da5cb5b146101b9578063f0313f47146101e4578063f2fde38b14610221576100bf565b80630331610e146100fa57806312065fe0146101375780633ccfd60b146101625780635a77f88614610179576100bf565b366100bf577f88a5966d370b9919b20f3e2c13ff65706f196a4e32cc2c12bf57088f8852587433346040516100b59291906108fd565b60405180910390a1005b7ffbf15a1bae5e021d024841007b692b167afd2a281a4ff0b44f47387eb388205c33346040516100f09291906108fd565b60405180910390a1005b34801561010657600080fd5b50610121600480360381019061011c9190610966565b61024a565b60405161012e9190610a23565b60405180910390f35b34801561014357600080fd5b5061014c6102fd565b6040516101599190610a45565b60405180910390f35b34801561016e57600080fd5b5061017761030d565b005b34801561018557600080fd5b506101a0600480360381019061019b9190610ac5565b6103d8565b005b3480156101ae57600080fd5b506101b76105f9565b005b3480156101c557600080fd5b506101ce61060d565b6040516101db9190610b25565b60405180910390f35b3480156101f057600080fd5b5061020b60048036038101906102069190610966565b610636565b6040516102189190610a23565b60405180910390f35b34801561022d57600080fd5b5061024860048036038101906102439190610b6c565b6106d6565b005b6060610254610759565b600060016000848152602001908152602001600020805461027490610bc8565b80601f01602080910402602001604051908101604052809291908181526020018280546102a090610bc8565b80156102ed5780601f106102c2576101008083540402835291602001916102ed565b820191906000526020600020905b8154815290600101906020018083116102d057829003601f168201915b5050505050905080915050919050565b6000610307610759565b47905090565b610315610759565b600061031f6102fd565b9050600061032b61060d565b73ffffffffffffffffffffffffffffffffffffffff168260405161034e90610c2a565b60006040518083038185875af1925050503d806000811461038b576040519150601f19603f3d011682016040523d82523d6000602084013e610390565b606091505b5050905080156103d4577f884edad9ce6fa2440d8a54cc123490eb96d2768479d49ff9c7366125a942436433836040516103cb9291906108fd565b60405180910390a15b5050565b6103e0610759565b60008282905011610426576040517f08c379a000000000000000000000000000000000000000000000000000000000815260040161041d90610c9c565b60405180910390fd5b60c8828290501061046c576040517f08c379a000000000000000000000000000000000000000000000000000000000815260040161046390610d08565b60405180910390fd5b6000602060ff16116104b3576040517f08c379a00000000000000000000000000000000000000000000000000000000081526004016104aa90610c9c565b60405180910390fd5b60006001600085815260200190815260200160002080546104d390610bc8565b80601f01602080910402602001604051908101604052809291908181526020018280546104ff90610bc8565b801561054c5780601f106105215761010080835404028352916020019161054c565b820191906000526020600020905b81548152906001019060200180831161052f57829003601f168201915b505050505090506001815110610597576040517f08c379a000000000000000000000000000000000000000000000000000000000815260040161058e90610d74565b60405180910390fd5b82826001600087815260200190815260200160002091826105b9929190610f7a565b507f8855153e9cc432eb7bb8788ae7e02d799ab4efefb62004d362a526f5707fcc0e83836040516105eb929190611086565b60405180910390a150505050565b610601610759565b61060b60006107d7565b565b60008060009054906101000a900473ffffffffffffffffffffffffffffffffffffffff16905090565b6001602052806000526040600020600091509050805461065590610bc8565b80601f016020809104026020016040519081016040528092919081815260200182805461068190610bc8565b80156106ce5780601f106106a3576101008083540402835291602001916106ce565b820191906000526020600020905b8154815290600101906020018083116106b157829003601f168201915b505050505081565b6106de610759565b600073ffffffffffffffffffffffffffffffffffffffff168173ffffffffffffffffffffffffffffffffffffffff160361074d576040517f08c379a00000000000000000000000000000000000000000000000000000000081526004016107449061111c565b60405180910390fd5b610756816107d7565b50565b61076161089b565b73ffffffffffffffffffffffffffffffffffffffff1661077f61060d565b73ffffffffffffffffffffffffffffffffffffffff16146107d5576040517f08c379a00000000000000000000000000000000000000000000000000000000081526004016107cc90611188565b60405180910390fd5b565b60008060009054906101000a900473ffffffffffffffffffffffffffffffffffffffff169050816000806101000a81548173ffffffffffffffffffffffffffffffffffffffff021916908373ffffffffffffffffffffffffffffffffffffffff1602179055508173ffffffffffffffffffffffffffffffffffffffff168173ffffffffffffffffffffffffffffffffffffffff167f8be0079c531659141344cd1fd0a4f28419497f9722a3daafe3b4186f6b6457e060405160405180910390a35050565b600033905090565b600073ffffffffffffffffffffffffffffffffffffffff82169050919050565b60006108ce826108a3565b9050919050565b6108de816108c3565b82525050565b6000819050919050565b6108f7816108e4565b82525050565b600060408201905061091260008301856108d5565b61091f60208301846108ee565b9392505050565b600080fd5b600080fd5b6000819050919050565b61094381610930565b811461094e57600080fd5b50565b6000813590506109608161093a565b92915050565b60006020828403121561097c5761097b610926565b5b600061098a84828501610951565b91505092915050565b600081519050919050565b600082825260208201905092915050565b60005b838110156109cd5780820151818401526020810190506109b2565b60008484015250505050565b6000601f19601f8301169050919050565b60006109f582610993565b6109ff818561099e565b9350610a0f8185602086016109af565b610a18816109d9565b840191505092915050565b60006020820190508181036000830152610a3d81846109ea565b905092915050565b6000602082019050610a5a60008301846108ee565b92915050565b600080fd5b600080fd5b600080fd5b60008083601f840112610a8557610a84610a60565b5b8235905067ffffffffffffffff811115610aa257610aa1610a65565b5b602083019150836001820283011115610abe57610abd610a6a565b5b9250929050565b600080600060408486031215610ade57610add610926565b5b6000610aec86828701610951565b935050602084013567ffffffffffffffff811115610b0d57610b0c61092b565b5b610b1986828701610a6f565b92509250509250925092565b6000602082019050610b3a60008301846108d5565b92915050565b610b49816108c3565b8114610b5457600080fd5b50565b600081359050610b6681610b40565b92915050565b600060208284031215610b8257610b81610926565b5b6000610b9084828501610b57565b91505092915050565b7f4e487b7100000000000000000000000000000000000000000000000000000000600052602260045260246000fd5b60006002820490506001821680610be057607f821691505b602082108103610bf357610bf2610b99565b5b50919050565b600081905092915050565b50565b6000610c14600083610bf9565b9150610c1f82610c04565b600082019050919050565b6000610c3582610c07565b9150819050919050565b600082825260208201905092915050565b7f4d65737361676520697320656d70747921000000000000000000000000000000600082015250565b6000610c86601183610c3f565b9150610c9182610c50565b602082019050919050565b60006020820190508181036000830152610cb581610c79565b9050919050565b7f4d657373616765206c656e67746820746f6f206c6f6e67210000000000000000600082015250565b6000610cf2601883610c3f565b9150610cfd82610cbc565b602082019050919050565b60006020820190508181036000830152610d2181610ce5565b9050919050565b7f4d657373616765206b6579207265706561742100000000000000000000000000600082015250565b6000610d5e601383610c3f565b9150610d6982610d28565b602082019050919050565b60006020820190508181036000830152610d8d81610d51565b9050919050565b600082905092915050565b7f4e487b7100000000000000000000000000000000000000000000000000000000600052604160045260246000fd5b60008190508160005260206000209050919050565b60006020601f8301049050919050565b600082821b905092915050565b600060088302610e307fffffffffffffffffffffffffffffffffffffffffffffffffffffffffffffffff82610df3565b610e3a8683610df3565b95508019841693508086168417925050509392505050565b6000819050919050565b6000610e77610e72610e6d846108e4565b610e52565b6108e4565b9050919050565b6000819050919050565b610e9183610e5c565b610ea5610e9d82610e7e565b848454610e00565b825550505050565b600090565b610eba610ead565b610ec5818484610e88565b505050565b5b81811015610ee957610ede600082610eb2565b600181019050610ecb565b5050565b601f821115610f2e57610eff81610dce565b610f0884610de3565b81016020851015610f17578190505b610f2b610f2385610de3565b830182610eca565b50505b505050565b600082821c905092915050565b6000610f5160001984600802610f33565b1980831691505092915050565b6000610f6a8383610f40565b9150826002028217905092915050565b610f848383610d94565b67ffffffffffffffff811115610f9d57610f9c610d9f565b5b610fa78254610bc8565b610fb2828285610eed565b6000601f831160018114610fe15760008415610fcf578287013590505b610fd98582610f5e565b865550611041565b601f198416610fef86610dce565b60005b8281101561101757848901358255600182019150602085019450602081019050610ff2565b868310156110345784890135611030601f891682610f40565b8355505b6001600288020188555050505b50505050505050565b82818337600083830152505050565b6000611065838561099e565b935061107283858461104a565b61107b836109d9565b840190509392505050565b600060208201905081810360008301526110a1818486611059565b90509392505050565b7f4f776e61626c653a206e6577206f776e657220697320746865207a65726f206160008201527f6464726573730000000000000000000000000000000000000000000000000000602082015250565b6000611106602683610c3f565b9150611111826110aa565b604082019050919050565b60006020820190508181036000830152611135816110f9565b9050919050565b7f4f776e61626c653a2063616c6c6572206973206e6f7420746865206f776e6572600082015250565b6000611172602083610c3f565b915061117d8261113c565b602082019050919050565b600060208201905081810360008301526111a181611165565b905091905056fea26469706673582212206926c51450b2eeced6ba2155e9eb698fcaa0328e9dbd5e979dae05148766bcba64736f6c63430008130033",
  "linkReferences": {},
  "deployedLinkReferences": {}
}